{
  "contractName": "HelloWorld",
  "abi": [
    {
      "constant": true,
      "inputs": [],
      "name": "hi",
      "outputs": [
        {
          "name": "",
          "type": "string"
        }
      ],
      "payable": false,
      "stateMutability": "pure",
      "type": "function"
    }
  ],
  "bytecode": "0x608060405234801561001057600080fd5b50610144806100206000396000f300608060405260043610610041576000357c0100000000000000000000000000000000000000000000000000000000900463ffffffff168063a99dca3f14610046575b600080fd5b34801561005257600080fd5b5061005b6100d6565b6040518080602001828103825283818151815260200191508051906020019080838360005b8381101561009b578082015181840152602081019050610080565b50505050905090810190601f1680156100c85780820380516001836020036101000a031916815260200191505b509250505060405180910390f35b6060806040805190810160405280600b81526020017f48656c6c6f20576f726c64000000000000000000000000000000000000000000815250905080915050905600a165627a7a723058208c5d8913e98d6c44d13982a1ed08e10c64c78579f1f3430d802815e31a4326e20029",
  "source": "pragma solidity ^0.4.23;\n\n//contract\ncontract HelloWorld {\n\n    //functions\n    \n    function hi() public pure returns (string) {//basic function to return \"Hello World\"\n    \tvar words=\"Hello World\";\n        return words;\n    }\n}\n",
  "sourcePath": "/home/atharv/All Sol files/1_HelloWorld/contracts/HelloWorld.sol",
  "compiler": {
    "name": "solc",
    "version": "0.4.24+commit.e67f0147.Emscripten.clang"
  },
  "schemaVersion": "2.0.1",
  "updatedAt": "2018-11-13T16:20:45.428Z"
}